:020000040800F2
:1000000000C00120F96D0008910F0008950F00084D
:10001000990F00089D0F0008A10F000800000000C4
:10002000000000000000000000000000A50F000814
:10003000A90F000800000000AD0F0008B10F000874
:10004000496E0008496E0008496E0008496E0008B4
:10005000496E0008496E000859110008496E0008F1
:10006000496E0008496E0008496E00080D490008F5
:10007000496E0008496E0008496E0008496E000884
:10008000496E0008496E0008496E0008496E000874
:10009000496E0008496E0008496E0008496E000864
:1000A000496E0008496E0008496E0008496E000854
:1000B000496E0008496E0008496E0008496E000844
:1000C000496E0008496E0008496E0008496E000834
:1000D000496E0008496E0008496E0008496E000824
:1000E000496E0008496E000869110008496E000851
:1000F000496E0008496E0008496E00080949000869
:10010000496E0008496E0008496E00081149000850
:10011000496E0008496E0008496E0008496E0008E3
:10012000496E0008496E0008496E0008496E0008D3
:10013000496E0008496E0008496E0008496E0008C3
:10014000496E0008496E0008496E000899110008C0
:10015000496E0008496E0008496E0008496E0008A3
:10016000496E0008496E0008496E0008496E000893
:10017000496E0008496E0008496E0008496E000883
:08018000496E0008496E0008F9
:1001880010B5054C237833B9044B13B10448AFF3C9
:1001980000800123237010BDD80500200000000056
:1001A8004872000808B5064B1BB106480649AFF36C
:1001B80000800648036813B1054B03B1984708BD92
:1001C8000000000048720008DC050020D40500206B
:1001D80000000000154B002B08BF134B9D46A3F5EC
:1001E800803A00218B460F461348144A121A06F02B
:1001F80061FE0F4B002B00D098470E4B002B00D010
:1002080098470020002104000D000D48002802D066
:100218000C4806F01BFF06F025FE2000290006F01A
:1002280055FD06F00FFE00BF0000080000000000AA
:100238000000000000000000D8050020400D00204C
:1002480055700008617000082DE9F04FDFF840A3F1
:10025800C04EDFF81883DFF818B391B05546002474
:10026800002738463770777003F0ACFF012003F0A1
:10027800A9FF022003F0A6FF032003F0A3FF07A8AD
:1002880002F0E0FC089BB448A0FB03035B09B3F150
:10029800807FC0F05081002003F0C6FF012003F0EA
:1002A800C3FF022003F0C0FF032003F0BDFF7378F3
:1002B80003F0FF00002B43D103F0C4FF0A23CAF860
:1002C8000030DAF80030002BFBD1012003F0BAFF30
:1002D8000A232B60DAF80030002BFBD1022003F050
:1002E800B1FF0A232B60DAF80030002BFBD1032082
:1002F80003F0A8FF0A232B60DAF80030002BFBD1AB
:100308000134E4B2102CD2D1002003F09BFF01206D
:1003180003F098FF022003F095FF032003F092FFFB
:100328000A23CAF80030DAF80030002BFBD1631E2C
:1003380013F0FF04E8D1737803F0FF00002BBBD063
:10034800002003F0D1FF0128FAD000270420012162
:10035800777002F00DFD0820012102F0E5FC4FF056
:10036800020903234FF470427C488DF80D3002A92E
:1003780002928DF80C908DF80E708DF80F7002F0C7
:10038800B1F84A4675480C2102F04AF94A467348C2
:100398000D2102F045F94A4670480E2102F040F955
:1003A8004A466E480F2102F03BF96D486D4A0368D2
:1003B8006D48ADF81870A2FB03231B0A013B9BB2E2
:1003C80040F2CF7204A97380ADF810300592ADF8F1
:1003D800127003F08DF86448012103F013F94FF00F
:1003E80001094FF47A7360225F480D930BA9ADF8A9
:1003F8002C20ADF83870ADF82E9003F037F93A4656
:100408003946594803F03EFB5748082103F090FA53
:1004180055480BA903F06AF93A465348042103F0FA
:1004280031FB5148082103F08BFA4F480BA903F020
:10043800A5F93A464C48082103F024FB4A4808210C
:1004480003F088FA48480BA903F0DEF93A46464813
:100458000C2103F017FB4448082103F083FA4946AE
:10046800414803F0F5F839463A463F4803F00AFB9D
:100478003A463D48042103F005FB3A463A4808212C
:1004880003F000FB3A4638480C2103F0FBFA072337
:100498004022364888F8023088F8017088F80370DE
:1004A80088F8047088F8002004F0F4FC1E23CAF8C9
:1004B8000030DAF80030002BFBD101270C23202272
:1004C8002B488BF8023037708BF801708BF80020BE
:1004D80004F0BEFD27482921062204F08DFDDFF82F
:1004E80094E0254B00939EF800209EF802302348A4
:1004F80039469EF80470DFF89CE08EF80020DFF89B
:1005080098E01F4A8EF800301E4B377104F072FFD6
:100518007378002BFCD0002003F0E6FE0128FAD007
:100528000021194802F0D8FD144806F065F913486F
:1005380005F0A6FF94E6DFF864E0144A013BCEF824
:100548000430F021072382F82310CEF80870CEF883
:100558000030A0E6F40500201F85EB51000C024096
:1005680020000020D34D621000080040340600200F
:1005780044060020380C00206400002048060020B3
:10058800480000207C0100200030014000ED00E020
:100598003C060020470600204006002010E000E04E
:1005A80082B0044A0190019B13601368002BFCD1B0
:1005B80002B070473C060020034B1A6812B11A6853
:1005C800013A1A60704700BF3C06002008B50221B6
:1005D800582001F0D3FD0748074C4FF0553101F082
:1005E80057FE0525022003F02DFE25602368002B09
:1005F800FCD1F7E7FCFF0F083C06002008B5034BC9
:100608001B7803B1FEE7FFF7E1FF00BFF405002008
:1006180030B52C4B83B000220321184640241C70AF
:1006280099705A70DA701A7104F034FC264B202144
:1006380018460C22012419709A705C7004F008FDA9
:100648001E20FFF7ADFF22460DF107000F2104F031
:10065800D3FC9DF807303B2B01D0FFF7B7FF1B4DAC
:100668001B4C4FF4FA732B602B681948292104227C
:100678001BB304F0C1FC94F90030A278002BB8BF7A
:100688005B42DBB20F2B52B205D8002AB8BF5242E8
:10069800D2B20F2AE8D9002003F0B8FD002003F0F9
:1006A80023FE0028FAD0002003F01EFE0128FAD00D
:1006B800002003F0B9FD03B030BDFFF787FF03B09A
:1006C80030BD00BF34060020440600203C06002050
:1006D800380C00202DE9F0410D2082B0012102F0F4
:1006E80023FB00240125202702266946CA480097D3
:1006F8008DF804508DF806408DF807408DF8056098
:1007080001F0F0FE3946C44801F07CFF6946C34851
:1007180000954FF400778DF804508DF806408DF859
:1007280007408DF8056001F0DDFE6946BC488DF88C
:1007380005608DF804408DF806408DF80740009755
:1007480001F0D0FE2946B54801F05CFF2846FFF7C6
:1007580027FF3946B24801F03FFF002800F0CB815F
:100768000023022269464FF480640125AC488DF8C5
:1007780004308DF806308DF8052000948DF8075068
:1007880001F0B0FE2846FFF70BFF2146A44801F010
:1007980023FF002800F0BB81A048012101F030FFB1
:1007A80001244FF4C053002502279D480093694651
:1007B8004FF400768DF804508DF806508DF80740F8
:1007C8008DF8057001F08EFE95488DF80650694643
:1007D8008DF804408DF807408DF80570009601F0FB
:1007E80081FE31468E4801F00DFF2046FFF7D8FE06
:1007F8008B484FF4006101F0EFFE002800F078818B
:1008080087484FF4805101F0E7FE002800F070811E
:10081800012400254FF480574FF0020880480097C4
:1008280069464FF400668DF804508DF806508DF82F
:1008380007408DF8058001F055FE79488DF806507F
:1008480069468DF804408DF807408DF805800096BC
:1008580001F048FE3146724801F0D4FE2046FFF709
:100868009FFE39466E4801F0B7FE002800F04C8123
:10087800012400254FF400674FF0020868480097EC
:1008880069464FF480568DF804508DF806508DF85F
:1008980007408DF8058001F025FE61488DF8065067
:1008A80069468DF804408DF807408DF8058000965C
:1008B80001F018FE31465A4801F0A4FE2046FFF721
:1008C8006FFE3946564801F087FE002800F019816E
:1008D8000122002402234FF4007551488DF80420AA
:1008E80069468DF8053000958DF806408DF807406B
:1008F80001F0F8FD4A48294601F082FE204603F03F
:1009080085FC002003F0F0FC0028FAD0002003F05A
:10091800EBFC0028FAD103F087FC41484FF4007142
:1009280001F070FE3C48202101F06AFE3C484FF47B
:10093800806101F051FE002840F0E0804FF4C05380
:100948000026022536480093694601244FF40077B3
:100958008DF804608DF806608DF807508DF8055005
:1009680001F0C0FD2E488DF8066069468DF80550E7
:1009780000978DF804408DF8074001F0B3FD394623
:10098800274801F03DFE2046FFF70AFE24484FF4B1
:10099800006101F021FE002800F0A48020484FF4F7
:1009A800805101F019FE002800F09C804FF490530C
:1009B800002602251A480093694601244FF400676F
:1009C8008DF804608DF806608DF807508DF8055095
:1009D80001F088FD12488DF8066069468DF80550CB
:1009E80000978DF804408DF8074001F07BFD3946EB
:1009F8000B4801F005FE2046FFF7D2FD08484FF4EA
:100A0800007101F0E9FD00286FD005484FF48051CE
:100A180001F0E2FD06E000BF000C024000080240C1
:100A280000000240002860D04FF420630026022511
:100A380038480093694601244FF480578DF80460C4
:100A48008DF806608DF807508DF8055001F04AFDC5
:100A580030488DF8066069468DF8055000978DF886
:100A680004408DF8074001F03DFD3946294801F062
:100A7800C7FD2046FFF794FD26484FF4007101F0AA
:100A8800ABFD28B123484FF4006101F0A5FD08B97A
:100A9800FFF79CFD002502244FF4C05369461D480A
:100AA80000934FF400768DF804508DF806508DF8B9
:100AB80007408DF8054001F015FD012369461548EA
:100AC8008DF804308DF807308DF806508DF8054004
:100AD800009601F007FD31460E4801F093FD02B083
:100AE800BDE8F081FFF772FD60E7FFF76FFD9BE758
:100AF800FFF76CFD8CE6FFF769FD31E6FFF766FD51
:100B08001CE7FFF763FDE3E6FFF760FDB0E6FFF7DC
:100B18005DFD41E6000002402DE9F04F4FF4807082
:100B280083B0012102F030F901214FF4007002F086
:100B38002BF9012003F084FD022057214BF6803267
:100B480003F074FF002840F04D81A94BDFF8C092F4
:100B5800A84CA94EDFF8B482A84D00274FF4706264
:100B68004FF440311846DA6059601F609F60277063
:100B780000F03CFD484600F02FFD4FF0010A4FF011
:100B8800007349469E48C9F8003089F814A089F8CE
:100B9800047089F80570C9F80870C9F8107000F079
:100BA800EFFC4946974800F0EBFC4FF0030904239B
:100BB8004FF0020B6946944800938DF804908DF825
:100BC80007708DF805B001F08DFC082369468E4842
:100BD800009301F087FC52464B4659468848678087
:100BE800A78000F055FD4B4652464946854800F01F
:100BF8004FFD5146824800F013FD5146814800F0F0
:100C08000FFD4FF4FA73A1463360C2463768002FD0
:100C180000F0DA807A4800F087FD7948022100F078
:100C280067FE0028F9D0764800F0AEFD0346754807
:100C38002B8000F079FD7348022100F059FE00284E
:100C4800F9D0704800F0A0FDA8F800002B889BB2EE
:100C5800962B0FD9BAF800309BB2092B0AD86388B3
:100C68009BB2B3F5FA7F05D0B9F8023001339BB2D5
:100C7800A9F802302B889BB2092B0FD8B8F800309E
:100C88009BB2962B0AD9A3889BB2B3F5FA7F05D0FD
:100C9800B9F8043001339BB2A9F8043063889BB2D9
:100CA800B3F5FA7FB2D1B9F804309BB2B3F5FA7F45
:100CB800ACD15348002100F0B3FC5248002100F0A9
:100CC800AFFC03F011FD022003F0BAFC02206421FE
:100CD8004BF6803203F0AAFE002840F086804FF0E1
:100CE8000109002349464648638084F80090A380A0
:100CF800464F424DDFF8FC8000F092FC49464148DF
:100D080000F08EFC4FF4FA73B94633603368002B59
:100D180065D03B4800F008FD3948022100F0E8FDA5
:100D28000028F9D0364800F02FFD034635482B80BF
:100D380000F0FAFC3348022100F0DAFD0028F9D06F
:100D4800304800F021FD38802B889BB2AA2B0FD9A0
:100D5800B9F800309BB2AA2B0AD963889BB2B3F5C5
:100D6800FA7F05D0B8F8023001339BB2A8F80230F8
:100D78002B889BB2092B0ED83B889BB2092B0AD82B
:100D8800A3889BB2B3F5FA7F05D0B8F804300133D5
:100D98009BB2A8F8043063889BB2B3F5FA7FB5D14B
:100DA800B8F804309BB2B3F5FA7FAFD1002003F056
:100DB8002DFA002003F098FA0028FAD0002003F05A
:100DC80033FA03B0BDE8F08F39460D4800F028FC2F
:100DD80039460C4800F024FCFFF7F8FB71E7FFF7F1
:100DE800F5FBE3E7FFF7F2FBAFE6FFF7EFFB76E78C
:100DF8006C0C0020FA0500203C060020400C002066
:100E08000020014000210140000002407C0C00202D
:100E1800440C0020F0B54FF4804087B0012101F068
:100E2800A7FF06AE0620012101F07EFF4FF4806384
:100E3800002546F8183D0127022369462D488DF8FC
:100E480004308DF806508DF807708DF8057001F0A4
:100E580049FB05222748284C0A2101F0E1FB082319
:100E680069462648009301F03DFB032105222348EB
:100E780001F0D6FB224802F049F84FF47A464FF4C5
:100E8800407310221E48ADF8083002A9ADF80A20B8
:100E98000496ADF80C50ADF81450ADF80E5002F0B1
:100EA80095F83946164802F025F90A20FFF778FB2D
:100EB8004FF4FA7323604FF6FF76236813B914E0F2
:100EC80023682BB10E48012102F0CCF90028F7D095
:100ED8000B4802F089F9B04204BF0135EDB21D2D6F
:100EE800EBD91E2D01D107B0F0BDFFF76FFB07B09E
:100EF800F0BD00BF000402403C060020000802408C
:100F080000380040704700BF704700BF30B4194B2D
:100F18001A7882B9D988F1B91889174C421C92B24B
:100F28001A81302A4FF0010234F8100008BF1981E5
:100F3800DA8030BC704719890F484A1C92B2302AAF
:100F480030F811001A8108BF002280F4004008BF61
:100F58001A8130BC70470949074D0888441CA4B25F
:100F6800302C0C8008BF0A80002235F81000DA8087
:100F780030BC7047FA0500203871000804000020D2
:100F8800FEE700BFFEE700BF704700BFFEE700BFF7
:100F9800FEE700BFFEE700BFFEE700BF704700BFE7
:100FA800704700BF704700BF2DE9F041614B1B78C7
:100FB80073B3614D614C95F902200023901C637056
:100FC800A3701ADB022A95F90020C4BFF9236370C5
:100FD800911C18DA0722A2700BB9A37823B15848DC
:100FE8005649042204F0C6FA2379544F0133DBB280
:100FF8000A2B237110D0BDE8F08195F90020072352
:10100800911C6370E6DB022AC4BFF922A270E3E7F1
:10101800BDE8F041FFF7D0BA0026314632464948CC
:101028002E70AE7002F02EFD32464648DFF8088179
:10103800042102F027FD32464248082102F022FD31
:10104800324640480C2102F01DFD40462921062267
:1010580003F0D2FF3C4A3D4B287811781B78AA78D8
:10106800411AD21AC9B2D2B24BB250B283EAE3766D
:10107800A6EBE3760028B8BF4042F6B2C0B2B04251
:1010880038BF3046787178792970AA7090B19A1C67
:1010980040DB022B30DC95F90230274D022B1BDC9C
:1010A80002330BDB6379274840F2CF7191FBF3F1F0
:1010B80002F084FA00232371BDE8F0812148082159
:1010C800012202F0DFFC63791E484FF47A7191FB2C
:1010D800F3F102F005FCE5E71A480021012202F0CD
:1010E800D1FC637917484FF47A7191FBF3F102F060
:1010F800F3FB95F90230D3E712480421012202F0EC
:10110800C1FC63790F484FF47A7191FBF3F102F057
:10111800E5FBC0E70B480C21012202F0B3FC7B7908
:1011280008484FF47A7191FBF3F102F0DBFB98F970
:101138000030AEE7F4050020380C00200806002037
:10114800480600200008004047060020400600200E
:101158000123024A1846137000F026BFF505002047
:1011680010B5094CA37A4BB1084B1A6922F0060254
:101178001A6100F013F8204605F070F94FF480204A
:10118800BDE8104000F010BF4806002000ED00E068
:10119800014805F061BB00BF480600203D4B3E48B2
:1011A8001968002241F0010119609A60196821F05C
:1011B800847121F4803119605860196882B021F473
:1011C80080211960DA60009201921A6842F4803234
:1011D8001A601A4603E0009BB3F5A06F09D01368A4
:1011E80003F400330193009B01330093019B002B10
:1011F800F1D0284B1B6813F4003318BF0123019367
:10120800019B012B14D0234A244B916821F400013F
:101218009160C2F88430136843F0806313601368E8
:101228001B01FCD51E4B4FF000629A6002B070475C
:10123800184B1C4A186C1C4940F080501864106800
:1012480040F4804010609A689A609A6842F40042BC
:101258009A609A6842F4A0529A6059601A6842F0FB
:1012680080721A6019460B680A4A9801FBD50F4B21
:1012780040F205611960936823F003039360936853
:1012880043F002039360936803F00C03082BFAD130
:10129800B9E700BF00380240103000240030005089
:1012A80000ED00E00070004008544007003C024098
:1012B800154B9A6802F00C02042A23D0082A09D098
:1012C800124A1149124B8968C1F30311595CCA408B
:1012D8001A617047586859685B6842024CBF0D4AEA
:1012E8000A4A01F03F01C3F38813B2FBF1F202FB93
:1012F80003F2054B5B68C3F3014301335B00B2FBA8
:10130800F3F2DEE7034ADCE7003802400024F40089
:101318001000002000127A00F0B501202A4D83B099
:10132800014601F001FD00260223032728466946ED
:101338004FF4D8528DF8043000928DF805708DF86E
:1013480006608DF8076001F0CDF8284608210A22CA
:1013580001F066F9284609210A2201F061F92846B8
:101368000B210A2201F05CF928460A220C2101F01F
:1013780057F901244FF480636946284600938DF895
:1013880005708DF806408DF8074001F0ABF80A218A
:101398000A46284601F044F921464FF4804001F0FE
:1013A800F3FC2146802001F0CBFC21464FF0805011
:1013B80001F01AFD3046214602F054FF204600F0A5
:1013C800F3FD03B0F0BD00BF0000024000B54FF4CC
:1013D800C06083B002F08EFE01234321032201A8DE
:1013E8008DF804108DF805308DF807308DF806203B
:1013F80002F08AFE03B05DF804FB00BFC0EB0010EA
:10140800064BC200A3FB0213D21A03EB5202920846
:10141800002301339A42FCD2704700BF2549922429
:10142800074A084B02FB00F0A3FB0023C21A03EB98
:1014380052029208002301339A42FCD2704700BF3F
:10144800C0D401002549922412230B80004870471C
:101458002400002004230B80004870473800002037
:1014680010B5044C04480A46214604F01DFB2046EA
:1014780010BD00BF000D0020C871000808B50A465D
:1014880028B10648064904F00FFB054808BD054881
:10149800034904F009FB024808BD00BFF0710008C9
:1014A800000D0020DC71000808B50A4628B106487E
:1014B800064904F0F9FA054808BD0548034904F04F
:1014C800F3FA024808BD00BF14720008000D00209E
:1014D8000472000810B5044C04480A46214604F07A
:1014E800E3FA204610BD00BF000D0020247200085A
:1014F80010B5044C04480A46214604F0D5FA2046A3
:1015080010BD00BF000D0020307200080B4A0C4BC4
:101518001268A3FB02121209B2F1807F30B40CD218
:10152800084B094CF025013A5A60002084F82350F2
:101538000721986030BC19607047FEE72000002042
:10154800ABAAAAAA10E000E000ED00E0704700BFD7
:10155800704700BF704700BF704700BF704700BFAB
:10156800704700BF08B54FF48070012101F048FCB6
:101578004FF480700021BDE8084001F041BC00BF75
:101588004268D1F80CC0134B2DE9F00122F04072EB
:101598000C6891F804800F698E684D7922F4807286
:1015A800224342EA0822426084684CEA0702324336
:1015B8002340134343EA450383600B7DC26A013B22
:1015C800DBB222F4700242EA0353C362BDE8F001C1
:1015D800704700BFFDF7FFC00023012202750360BA
:1015E800037143718360C3600361704770B490E80E
:1015F8004200064A8568C468054B50683143294350
:10160800214303400B43536070BC704700230140E3
:10161800E030FCFF0023036043608360C3607047D1
:10162800836819B923F001038360704743F001030D
:1016380083607047436823F4400323F4007319431D
:101648004160704741628262704700BF436823F07F
:101658001F03194341607047054B5A6818B922F4B3
:1016680000025A60704742F400025A60704700BF97
:1016780000230140054B5A6818B922F480025A60C9
:10168800704742F480025A60704700BF002301404F
:10169800092970B41ED9A1F10A0404EB4404C568F1
:1016A8000726A64003FA04F425EA06032343062A7C
:1016B800C3601CD90C2A28D90D3AC46A02EB8202ED
:1016C8001F23934024EA030301FA02F21A43C26279
:1016D80070BC704701EB410405690726A64003FA70
:1016E80004F425EA06032343062A0361E2D8013AF3
:1016F800446B02EB82021F23934024EA030301FA9E
:1017080002F21A43426370BC7047073A046B02EB5B
:1017180082021F23934024EA030301FA02F21A43C8
:10172800026370BC704700BF836843F080438360E6
:10173800704700BF8068C0F380507047836819B94C
:1017480023F480638360704743F480638360704749
:10175800836819B923F002038360704743F00203DA
:10176800836070474368013923F4604343EA413199
:1017780041607047436819B923F4006343607047B8
:1017880043F4006343607047C06C80B2704700BF89
:10179800014B1868704700BF08230140836819B9D6
:1017A80023F480738360704743F4807383607047C9
:1017B800836819B923F400738360704743F4007396
:1017C80083607047054B5A6818B922F400525A6072
:1017D800704742F400525A60704700BF002301402E
:1017E800092970B41BD801EB410405690726A640F6
:1017F80003FA04F425EA060323430361836B0232E8
:10180800C3F30154121BD2B202EB82021F2494408C
:1018180023EA040391400B43836370BC7047A1F132
:101828000A0404EB4404C5680726A64003FA04F436
:1018380025EA06032343C360E0E700BF836B013951
:1018480023F4401343EA01518163704782B00023B7
:1018580001930190019B19440191019B1A6002B008
:10186800704700BF836823F4702319438160704771
:10187800836823F44013194381607047836843F4F5
:1018880080038360704700BF8068C0F38050704752
:10189800436819B923F480634360704743F4806355
:1018A80043607047436819B923F480534360704715
:1018B80043F480534360704782B000230193019042
:1018C800019B283319440191019B186880B202B02A
:1018D800704700BF0123C9B203FA01F143681AB97E
:1018E80023EA01014160704719434160704700BF16
:1018F800036819420CBF002001207047C9430160EA
:10190800704700BF4368006810EA112007D0C9B2C9
:10191800012202FA01F119420CBF00200120704790
:101928006FEA11210160704708B54FF0005001219E
:1019380001F05AFA4FF000500021BDE8084001F0CC
:1019480053BA00BF70B491E860008C68084BC9684E
:101958001A6835432C4340F6FE768640214322EA36
:10196800060201FA00F002431A6070BC704700BF1B
:10197800007400400023036043608360C3607047C5
:10198800084B39B91A68012101FA00F022EA00006F
:10199800186070471A68012101FA00F010431860B6
:1019A800704700BF00740040084B000939B95A68F5
:1019B800012101FA00F022EA0000586070475A68D5
:1019C800012101FA00F0104358607047007400408C
:1019D800054B5A6818B922F003025A60704742F062
:1019E80003025A60704700BF00740040064B2AB9D2
:1019F8001A68814022EA0101196070471A6881401B
:101A080011431960704700BF0074004082B0002283
:101A1800054B01920193019B083318440190019BE7
:101A2800196002B0704700BF0074004082B0002205
:101A3800054B01920193019B143318440190019BBB
:101A4800196002B0704700BF007400400828044BBA
:101A58000CBF42EA012142EA0141C150704700BF70
:101A68002074004082B00022064B01920193019B32
:101A78002C3303EB90000190019B186880B202B0F0
:101A8800704700BF00740040094B41B91A684FF411
:101A9800805101FA00F022EA0000186070471A68C5
:101AA8004FF4805101FA00F010431860704700BFEE
:101AB80000740040064B2AB91A68814022EA0101E5
:101AC800196070471A68814011431960704700BF58
:101AD80000740040034B5B6B814019420CBF00202F
:101AE8000120704700740040014B814059637047E2
:101AF80000740040054B1A685B6B814011EA0300D3
:101B080003D011420CBF0020012070470074004030
:101B1800014B8140596370470074004010B4374A44
:101B28000468002324F0010421219042046003602A
:101B380043608360C360036141614DD0304B98427C
:101B480035D0304B984239D02F4B98423DD02F4B4F
:101B5800984247D02E4B984248D02E4B98421DD0E1
:101B68002D4B98421ED02D4B984243D02C4B984277
:101B78001DD02C4B984221D02B4B984225D02B4B73
:101B880098422FD02A4B984230D02A4B984205D001
:101B9800294B984206D05DF8044B7047274A43F812
:101BA800942CF8E74FF03D5243F8AC2CF3E74FF490
:101BB800746243F8202C5DF8044B70474FF474129C
:101BC80043F8382C5DF8044B70474FF0746243F8C3
:101BD800502C5DF8044B7047194B5DF8044B3D22BF
:101BE8009A607047174A43F8642CD4E7164A43F8BA
:101BF8007C2CD0E73D2243F8082CCCE7106002404B
:101C08002860024040600240586002407060024014
:101C180088600240A0600240B86002401064024040
:101C280028640240406402405864024070640240E4
:101C380088640240A0640240B864024000003D206D
:101C4800006002403D000020400F0020CA680B6879
:101C5800D0F800C02DE9F0074F698E69CD690C6A8C
:101C6800D1F83490D1F8388042EA030A4AEA0707E3
:101C78003E434B6A4F6835432C4344EA03028B6A60
:101C88000D4ECC6A0D691A4342EA090949EA080867
:101C98000CEA060648EA06060B6B89680660426984
:101CA800234322F007021343436145608760C16004
:101CB800BDE8F007704700BF3F801CF000230360B9
:101CC80043608360C360036143618361C3610362EE
:101CD80043628362C362036343638363704700BFE5
:101CE800036819B923F001030360704743F0010347
:101CF80003607047036819B923F400430360704711
:101D080043F4004303607047036819B923F02003C4
:101D18000360704743F020030360704741607047D9
:101D2800406880B2704700BF036822B923F40023DB
:101D380003600161704743F4002303600161704749
:101D4800036819B923F480230360704743F48023A0
:101D5800036070470AB9C16070470161704700BFEE
:101D68000068C0F3C0407047006800F00100704789
:101D7800406900F0380070470B4B0C4A10B40C4C0B
:101D8800A0428CBF104618468B004CBF43680368BE
:101D98005DF8044B21F0F02121F0821119420CBFAB
:101DA80000200120704700BF00600240006402402C
:101DB8000F64024010B4094A094C0A4BA0428CBF78
:101DC8001046184611F0005F21F0F02121F0821131
:101DD80014BFC16081605DF8044B70470064024025
:101DE8000F640240006002400B060CD54369AAB19B
:101DF80043F08003802943610FD0036801F01E017E
:101E0800194301607047802907D0002AF5D103687B
:101E180001F01E0123EA01010160704723F08003ED
:101E280080294361F3D1704770B4114A114D124CA7
:101E380021F0F02323F0C316A84288BF224696B1AA
:101E4800046804F01E0404EAD12489004CBF5268D7
:101E5800126823F0821313EA020002D0201C18BF74
:101E6800012070BC7047446904F08004EDE700BFAE
:101E7800006002400F6402400064024010B4094A46
:101E8800094C0A4BA0428CBF1046184611F0005F5F
:101E980021F0F02121F0821114BFC16081605DF84A
:101EA800044B7047006402400F6402400060024027
:101EB800044B054900221A605A609A60DA60596139
:101EC800704700BF003C0140FFFF7F00837970B47A
:101ED8002BB31D4B01681E6802794579CC43264017
:101EE8001E605E6802F1804202F59E3234405C60FA
:101EF80014682143116002689868D14308409860CB
:101F0800D868102D01EA0001D96014D005F180438A
:101F180003F59E3370BC19680A431A607047037949
:101F2800016803F1804303F59E3370BC1A6822EA06
:101F380001021A607047996811439960D9680A4389
:101F4800DA6070BC704700BF003C014000230C22DF
:101F58004271036003718371704700BF024B1A69B5
:101F680010431861704700BF003C0140034B5B6998
:101F780018420CBF00200120704700BF003C014000
:101F8800014B5861704700BF003C0140054B1A687F
:101F98005B69034004D010420CBF00200120704749
:101FA80018467047003C0140014B5861704700BF1C
:101FB800003C0140014BC0B218707047003C024021
:101FC800054B1A6818B922F480721A60704742F4F7
:101FD80080721A60704700BF003C0240054B1A68C7
:101FE80018B922F400721A60704742F400721A603D
:101FF800704700BF003C0240054B1A6818B922F42C
:1020080080621A60704742F480621A60704700BFAD
:10201800003C0240024B1A6842F400621A607047A2
:10202800003C0240024B1A6842F480521A60704722
:10203800003C0240044B1A69002A03DA0349044AA7
:1020480059605A60704700BF003C02402301674551
:10205800AB89EFCD024B1A6942F000421A61704712
:10206800003C0240044B5A69D20703D50349044A8D
:1020780099609A60704700BF003C02403B2A1908EB
:102088007F6E5D4C024B5A6942F001025A617047FB
:10209800003C0240044B1A7802F0F3021A701A78D6
:1020A80010431870704700BF143C0240024B586937
:1020B800C0F34710704700BF003C0240014B18882E
:1020C80080B27047163C0240024B1878AA3818BFF5
:1020D80001207047153C0240024B187800F00C00B4
:1020E800704700BF143C0240044B1A6919B922EA30
:1020F800000018617047104318617047003C0240A7
:10210800034BDB6818420CBF00200120704700BF5A
:10211800003C0240014BD860704700BF003C0240C1
:102128000B4BDA68D1030AD4DA68D20601D5052048
:102138007047DA6812F0EF0F03D0062070470120CD
:102148007047DB6813F0020F0CBF082007207047A8
:10215800003C024000B583B008238DF80730FFF734
:10216800DFFF8DF807009DF80730012BF7D09DF8A9
:102178000700C0B203B05DF804FB00BF70B50546A8
:1021880059B301292FD0022914BF4FF440764FF4D8
:102198000076FFF7DFFF082824D1144C236923F4C5
:1021A8004073236121690E432661236923F0F803F4
:1021B8002361236943F002031D432561236943F426
:1021C80080332361FFF7C6FF236923F002032361ED
:1021D800236923F0F803236170BD0E46FFF7BAFFA9
:1021E8000828DAD070BD4FF48076F7E7003C02404B
:1021F80038B50446FFF7AEFF3CB1012C08D0022CDD
:1022080014BF4FF440744FF40074082804D038BD4C
:1022180008284FF48074FAD10B4D2B6923F44073CE
:102228002B612B691C432C612B6943F004032B6140
:102238002B6943F480332B61FFF78CFF2B6923F064
:1022480004032B6138BD00BF003C0240F8B50746C7
:1022580014461D46FFF77EFF082800D0F8BD0B4E38
:10226800336923F440733361336943F44073336152
:10227800336943F001033361C7E90045FFF76AFF9B
:10228800336923F001033361F8BD00BF003C02400D
:1022980070B505460E46FFF75DFF082800D070BDF3
:1022A8000A4C236923F440732361236943F40073C0
:1022B8002361236943F0010323612E60FFF74AFF7E
:1022C800236923F00103236170BD00BF003C024075
:1022D80070B505460E46FFF73DFF082800D070BDD3
:1022E8000A4C236923F440732361236943F4807300
:1022F8002361236943F0010323612E80FFF72AFF3E
:10230800236923F00103236170BD00BF003C024034
:1023180070B505460E46FFF71DFF082800D070BDB2
:10232800094C236923F440732361236923612369DA
:1023380043F0010323612E70FFF70CFF236923F09C
:102348000103236170BD00BF003C024038B505465B
:102358000C46FFF7FFFE082800D038BD054B1A8849
:102368001CB91543ADB21D8038BD92B222EA0505ED
:102378001D8038BD163C024010B50446FFF7EAFE42
:10238800082804BF014B1C7010BD00BF153C02405B
:1023980070B506460C461546FFF7DCFE082807D13F
:1023A800044B1A7802F00F02164335432C431C7075
:1023B80070BD00BF143C0240034B1A7842F0020281
:1023C8001A70FFF7C7BE00BF143C024008B53C4B6B
:1023D800984224D03B4B98422BD03B4B984232D06A
:1023E8003A4B984239D03A4B984240D0394B9842B0
:1023F80047D0394B98424ED0384B984255D0384B3D
:10240800984200D008BD4FF48070012100F0C8FC4C
:102418004FF480700021BDE8084000F0C1BC0120E5
:10242800014600F0BDFC01200021BDE8084000F095
:10243800B7BC0220012100F0B3FC02200021BDE856
:10244800084000F0ADBC0420012100F0A9FC0420E4
:102458000021BDE8084000F0A3BC0820012100F0DD
:102468009FFC08200021BDE8084000F099BC10201E
:10247800012100F095FC10200021BDE8084000F083
:102488008FBC2020012100F08BFC20200021BDE81A
:10249800084000F085BC4020012100F081FC40206C
:1024A8000021BDE8084000F07BBC8020012100F03D
:1024B80077FC80200021BDE8084000F071BC00BF17
:1024C800000002400004024000080240000C0240E4
:1024D800001002400014024000180240001C024094
:1024E8000020024000222DE9F00713460E6801275C
:1024F8004FF0030804E00133102B02F102022CD044
:1025080007FA03F404EA0605A542F4D1D0F80090CE
:1025180091F804C008FA02F4E44304EA0909C0F88F
:102528000090D0F800900CFA02FA0CF1FF3C4AEA4D
:102538000909BCF1010FC0F8009011D9C56891F8DC
:1025480007C02C40C460C5680CFA02F401332C4360
:10255800102BC46002F10202D2D1BDE8F007704727
:10256800D0F808A091F8059091F806C004EA0A0A84
:10257800C0F808A0D0F808A009FA02F949EA0A093F
:10258800C0F80890D0F8049029EA05054560456828
:102598000CFA03FC1FFA8CFC4CEA05054560CDE7F4
:1025A80000234FF6FF720260037143718371C37198
:1025B800704700BF82B04FF480330193019B0B43F7
:1025C8000193019BC361C161019BC361C36901930D
:1025D800C369019302B07047036919420CBF002018
:1025E80001207047006980B2704700BF43691942F3
:1025F8000CBF002001207047406980B2704700BFBF
:1026080001837047418370470AB94183704701834A
:10261800704700BF41617047436959404161704745
:10262800CB0800EB830001F0070110B48900046AAD
:102638000F238B4024EA03030362036A5DF8044B0B
:102648008A4013430362704708B5174B984212D06B
:10265800164B98421BD0164B984200D008BD4FF439
:102668000000012100F0C0FB4FF400000021BDE88C
:10267800084000F0B9BB4FF40010012100F0B4FB92
:102688004FF400100021BDE8084000F0ADBB4FF446
:102698008000012100F0A8FB4FF480000021BDE874
:1026A800084000F0A1BB00BF0054004000580040A3
:1026B800005C0040F0B5044685B068460D46A68823
:1026C80000F0C0FA029930482A68DFF8C4C0A0FBBD
:1026D800013026F03F063604800C360C87B23E43A4
:1026E800A680238823F001031B041B0C624523806A
:1026F80023D85300B1FBF3F39BB2032B07F1010777
:1027080098BF04232784A38323886E89A8882989EE
:10271800AA899BB243F001032380238823F48163B1
:1027280023F002031B0430431B0C03430A439BB2F0
:1027380092B22380228105B0F0BDEE884BF6FF737C
:102748009E421AD002EB820202EB8202B1FBF2F344
:102758009BB243F48043C3F30B020AB943F001036D
:102768004FF49671094A01FB00F082FB00108009C2
:10277800013043F400432084C5E702EB4202B1FB79
:10278800F2F39BB2E7E700BF83DE1B43D34D621031
:10279800A0860100002310B44BF6FF7141F2883483
:1027A8004FF480420460C180828183800381438129
:1027B8005DF8044B704700BF038829B923F0010373
:1027C8001B041B0C038070479BB243F0010303807A
:1027D800704700BF038829B923F480731B041B0CBE
:1027E800038070479BB243F480730380704700BF37
:1027F800038829B923F400731B041B0C038070475A
:102808009BB243F400730380704700BF1AB901F00C
:10281800FE010182704741F001010182704700BF4B
:10282800038829B923F480631B041B0C03807047B9
:102838009BB243F480630380704700BF83899BB2D7
:1028480001F0FE0123F0FE0319438181704700BFA8
:10285800838929B923F001031B041B0C838170476A
:102868009BB243F001038381704700BF038829B9F5
:1028780023F040031B041B0C038070479BB243F0FA
:1028880040030380704700BF038819B9C3F30E03E0
:10289800038070476FEA43436FEA53439BB2038058
:1028A800704700BF038829B123F080031B041B0C69
:1028B800038070479BB243F080030380704700BFDA
:1028C800B1F5804F838B05D023F480431B041B0C88
:1028D800838370479BB243F480438383704700BF70
:1028E800B1F5006F038805D023F400631B041B0CAB
:1028F800038070479BB243F400630380704700BFB6
:10290800B1F5005F038805D023F400531B041B0CAA
:10291800038070479BB243F400530380704700BFA5
:10292800038829B923F010031B041B0C038070478C
:102938009BB243F010030380704700BF01827047C9
:10294800008AC0B2704700BF038829B923F48053B6
:102958001B041B0C038070479BB243F48053038015
:10296800704700BFB1F5006F038805D023F40063FA
:102978001B041B0C038070479BB243F40063038065
:10298800704700BF038829B923F020031B041B0CE0
:10299800038070479BB243F020030380704700BF59
:1029A800008BC0F307207047838829B923F400639C
:1029B8001B041B0C838070479BB243F40063838025
:1029C800704700BF838829B923F480531B041B0C6C
:1029D800838070479BB243F480538380704700BF65
:1029E80082B0002301930190019B19440191019B3E
:1029F800188880B202B0704783889BB21AB923EA5C
:102A0800010181807047194381807047828A038B56
:102A180090B240EA034021F07F4318400B1A584215
:102A280058417047828A038B90B240EA034020F0F5
:102A38007F40704782B000230A0F009301930190F2
:102A48000092009B21F07F4153B1019B1433019305
:102A5800019B1B6819420CBF0020012002B070477F
:102A6800019B1833090C0193F2E700BFC94389B2EF
:102A7800818270478388808A80B208409BB206D0E2
:102A880001F0E06113EA11410CBF002001207047FA
:102A9800C94389B2818270470A4B0B481A680021E2
:102AA80042F001021A6099601A6822F0847222F4D6
:102AB80080321A6058601A6822F480221A60D9603D
:102AC800704700BF0038024010300024024B00223B
:102AD8001A701870704700BF0238024082B0002395
:102AE8000B4A019313689B030CD4019B0133019398
:102AF800019BB3F5A06FF5D1054B1868C0F34040B2
:102B080002B07047019B01330193019BF4E700BFBA
:102B180000380240034B1A6822F0F80242EAC0006B
:102B28001860704700380240014B1860704700BFBA
:102B380000004742064B002201281A701A7005D07F
:102B4800042802D105221A70704770471870704720
:102B580070380240014B1860704700BF800E474232
:102B680030B4029C064D40EA04605B080143013B17
:102B780041EA821242EA03436B6030BC704700BFEF
:102B880000380240014B1860704700BF60004742A0
:102B98000907034B41EA8010C3F88400704700BF5F
:102BA80000380240014B1860704700BF6800474278
:102BB800014B1860704700BF4C004742034B9A68AE
:102BC80022F0EC62114308439860704700380240D5
:102BD800034B9A6822F07842114308439860704783
:102BE80000380240034B9A6822F0030210439860B1
:102BF800704700BF00380240024B986800F00C0094
:102C0800704700BF00380240034B9A6822F0F00278
:102C180010439860704700BF00380240034B9A6821
:102C280022F4E05210439860704700BF0038024019
:102C3800034B9A6822F4604242EAC00098607047E9
:102C4800003802401F4A936803F00C03042B10B4A9
:102C58001BD0082B1CD01C4B03601A491B4A8C68DC
:102C6800C4F30314145DE34043608C68C4F3822406
:102C7800145D23FA04F4846089685DF8044BC1F399
:102C88004231525CD340C3607047114B0360E4E7A4
:102C980054685168526863024CBF0D4B0A4B01F0EF
:102CA8003F01C2F38812B3FBF1F303FB02F3054AB9
:102CB8005268C2F3014201325200B3FBF2F30360DF
:102CC800CBE700BF003802400024F4008000002059
:102CD80000127A0000F44073B3F5407F09D1084A26
:102CE800916820F0704321F4F81123F440730B43EA
:102CF8009360034B1A6FC0F30B00104318677047BB
:102D080000380240014B1860704700BF3C0E474234
:102D1800014B1860704700BF400E4742014B1860D6
:102D2800704700BF5C014742044B1A6B19B922EA8D
:102D3800000018637047104318637047003802405A
:102D4800044B5A6B19B922EA0000586370471043C4
:102D58005863704700380240044B9A6B19B922EA4D
:102D6800000098637047104398637047003802402A
:102D7800044B1A6C19B922EA000018647047104312
:102D88001864704700380240044B5A6C19B922EA9B
:102D98000000586470471043586470470038024078
:102DA800044B1A6919B922EA0000186170471043E8
:102DB8001861704700380240044B5A6919B922EA71
:102DC800000058617047104358617047003802404E
:102DD800044B9A6919B922EA0000986170471043B8
:102DE8009861704700380240044B1A6A19B922EA00
:102DF800000018627047104318627047003802409C
:102E0800044B5A6A19B922EA000058627047104305
:102E18005862704700380240044B1A6D19B922EA0B
:102E28000000186570471043186570470038024065
:102E3800044B5A6D19B922EA0000586570471043CF
:102E48005865704700380240044B9A6D19B922EA58
:102E58000000986570471043986570470038024035
:102E6800044B1A6E19B922EA00001866704710431D
:102E78001866704700380240044B5A6E19B922EAA6
:102E88000000586670471043586670470038024083
:102E9800044B1A7819B922EA0000187070471043D9
:102EA800187070470D3802404309012B0BD0022BD4
:102EB800094B0CBF1B6F5B6F00F01F0023FA00F07B
:102EC80000F001007047044B1B6800F01F0023FA54
:102ED80000F000F00100704700380240024B5A6FC2
:102EE80042F080725A67704700380240034BDB6833
:102EF80018420CBF00200120704700BF0038024074
:102F0800014B1870704700BF0E38024008B5174BC8
:102F1800984212D0164B98421BD0164B984200D0BC
:102F280008BD4FF400400121FFF75EFF4FF4004059
:102F38000021BDE80840FFF757BF4FF4805001213A
:102F4800FFF75EFF4FF480500021BDE80840FFF70F
:102F580057BF4FF480400121FFF746FF4FF48040F0
:102F68000021BDE80840FFF73FBF00BF0030014027
:102F780000380040003C00402DE9F007B1F802A0FD
:102F8800B1F80090B1F804800F894E898D89CC89F9
:102F9800B1F806C00A8A03884AEA090141EA080129
:102FA80041EA0C01394331432943214303F4415396
:102FB8000B439BB20380838B23F400631B041B0C1D
:102FC8008383BDE8F0070282704700BF838B8A685D
:102FD80023F47B6323F00F031B042DE9F0031B0C80
:102FE800022483830484B0F81CC0A2421FFA8CFC1C
:102FF80052D02B4B8C889D68002C0CBF4FF00108D9
:103008004FF002082D0242D4254BDFF89C90D3F8EC
:103018008450D3F884605F68CB8807F03F07C5F316
:103028008815B9FBF7F7B3F5007FC6F3027605FB01
:1030380007F5B5FBF6F516BF4FEA48182D0AB5FB9C
:10304800F8F505EB85056D00B5FBF2F20532154D77
:1030580092B2A5FB0262D2085508AE1E02F0010228
:10306800FD2E94BF45EA022202220F884E888D89E0
:103078004CEA070141F4006131432943134389B203
:103088000C439BB203848483BDE8F00370479D68BA
:1030980025F400059D60B7E78C88CB88E5E700BF7D
:1030A80000380240CDCCCCCC00127A000023072295
:1030B8000282038043808380C380038143818381AC
:1030C800C38170470023022282600380438083808B
:1030D800C3808381704700BF038829B923F0400368
:1030E8001B041B0C038070479BB243F04003038012
:1030F800704700BF838B29B923F480631B041B0C22
:10310800838370479BB243F480638383704700BF17
:10311800038823F400631B041B0C038003889BB201
:1031280019430180704700BFB1F5804F038805D06F
:1031380023F480431B041B0C038070479BB243F4A9
:1031480080430380704700BF4FF6FF6399420388AE
:1031580004D09BB243F480730380704723F48073D8
:103168001B041B0C03807047838829B923F00403D0
:103178001B041B0C838070479BB243F004038380BD
:10318800704700BF838829B923F010031B041B0C68
:10319800838070479BB243F010038380704700BF61
:1031A800838B23F47B6323F00F031B0402221B0C85
:1031B80083830284838B0A8830B44D888C888989FC
:1031C8009BB22B4343F4006322F40072234392B270
:1031D8000B43002A9BB214BF00224FF480721343A2
:1031E800838330BC704700BF808980B2704700BFBE
:1031F80081817047038829B923F400531B041B0CF1
:10320800038070479BB243F400530380704700BFAC
:1032180003889BB243F4805303807047012914BF8D
:10322800008B808A80B27047008A80B2704700BFE6
:1032380083889BB21AB923EA010181807047194338
:10324800818070470123090903FA01F1838889B253
:103258009BB21AB923EA0101818070471943818022
:10326800704700BF038919420CBF00200120704736
:10327800C94389B20181704710B48488008901F07C
:103288000F03012280B202FA03F31840A4B205D05A
:1032980009098A4014420CBF002001205DF8044B44
:1032A800704700BF01F00F01012303FA01F1C94380
:1032B80089B20181704700BF08B54FF480400121F1
:1032C800FFF79EFD4FF480400021BDE80840FFF75E
:1032D80097BD00BF014B1860704700BF0038014020
:1032E80001F0FC0303F1804303F59C3301F0030173
:1032F80010B489009C680F228A4024EA02029A606E
:103308009A685DF8044B884002439A60704700BF92
:10331800014B1860704700BFDC002742014B186062
:10332800704700BF00042742024B186AC0F3002010
:10333800704700BF0038014008B5604B984235D04F
:10334800B0F1804F3CD05E4B984243D05D4B9842E1
:103358004AD05D4B984251D05C4B984258D05C4B58
:1033680098425FD05B4B984266D05B4B98426DD0D9
:103378005A4B984276D05A4B98427FD0594B984234
:1033880000F08880584B984200F08E80574B984246
:1033980000D008BD4FF480700121FFF725FD4FF4E0
:1033A80080700021BDE80840FFF71EBD01200146DE
:1033B800FFF726FD01200021BDE80840FFF720BDEA
:1033C80001200146FFF710FD01200021BDE808405B
:1033D800FFF70ABD02200121FFF706FD02200021A8
:1033E800BDE80840FFF700BD04200121FFF7FCFC01
:1033F80004200021BDE80840FFF7F6BC08200121A1
:10340800FFF7F2FC08200021BDE80840FFF7ECBCFC
:1034180010200121FFF7E8FC10200021BDE808403A
:10342800FFF7E2BC20200121FFF7DEFC202000216D
:10343800BDE80840FFF7D8BC02200121FFF7E0FCF7
:1034480002200021BDE80840FFF7DABC4FF48030C5
:103458000121FFF7D5FC4FF480300021BDE808407A
:10346800FFF7CEBC4FF400300121FFF7C9FC4FF441
:1034780000300021BDE80840FFF7C2BC4FF48020AF
:103488000121FFF7BDFC4FF480200021BDE8084072
:10349800FFF7B6BC40200121FFF7A6FC4020002121
:1034A800BDE80840FFF7A0BC80200121FFF79CFC85
:1034B80080200021BDE80840FFF796BC00000140CD
:1034C8000004004000080040000C004000100040CC
:1034D8000014004000040140004001400044014045
:1034E8000048014000180040001C00400020004037
:1034F800234A0388904270B49BB212D002F58062CE
:1035080090420ED0B0F1804F0BD0A2F5803290429D
:1035180007D002F58062904203D002F580629042A3
:1035280003D14A8823F070031343164A90421ED0F1
:1035380002F5806290421AD00E894D680C8823F4F7
:10354800407302F56C429BB2334390420380C562DC
:10355800048506D00C4B984203D00123838270BCAB
:1035680070478B7A03860123838270BC704703807F
:103578000B884A68C26203850123838270BC704746
:1035880000000140001000400004014000234FF0FB
:10359800FF3242600380038143808372704700BF1B
:1035A80001858282704700BF038823F070031B04E3
:1035B8001B0C19430180704741627047C162704714
:1035C800406A7047008D80B2704700BF038829B9F0
:1035D80023F002031B041B0C038070479BB243F0CB
:1035E80002030380704700BF038829B923F004034E
:1035F8001B041B0C038070479BB243F00403038039
:10360800704700BF038829B923F080031B041B0CF3
:10361800038070479BB243F080030380704700BF6C
:10362800038823F008031B041B0C038003889BB248
:1036380019430180704700BF038823F440731B04BB
:103648001B0C038003889BB219430180704700BF9D
:10365800038829B923F001031B041B0C038070475E
:103668009BB243F001030380704700BFF0B4048CA1
:10367800B1F802C08F890E881B4D24F00104240480
:10368800240C0484028C8488038B22F0020223F029
:10369800730312044CEA07071B04120CBFB21B0C7D
:1036A800A84247EA0202A4B243EA06030AD005F593
:1036B8008065A84206D0896884800383F0BC416392
:1036C80002847047B1F80EC04F8A0D8A8E8822F0A6
:1036D800080242EA0C023D4324F4407422F004023A
:1036E800ADB232432C43E6E700000140F0B4048C4D
:1036F800B1F80CC04F880E881F4D24F01004240424
:10370800240C0484028C8488038B22F02002120487
:1037180023F4E643120C1B0442EA0C121B0C42EA87
:10372800071243EA0623A84292B2A4B29BB20AD077
:1037380005F58065A84206D0896884800383F0BCBB
:10374800816302847047CD89B1F810C08F884E8A92
:1037580022F0800292B242EA051224F440644FF645
:10376800BF75154044EA8C0445EA071244EA86040A
:1037780092B2A4B2E0E700BF00000140F0B4048CAC
:10378800B1F80CC04F880E881E4D24F480742404B0
:10379800240C0484028C8488838B22F40072120423
:1037A800120C23F0730342EA0C221B0442EA07229C
:1037B8001B0CA84292B2A4B243EA06030AD005F54C
:1037C8008065A84206D0896884808383F0BCC16381
:1037D80002847047CD89B1F810C08F884E8A22F4D0
:1037E800006292B242EA052224F440544FF6FF35B3
:1037F800154044EA0C1445EA072244EA061492B23A
:10380800A4B2E0E700000140F0B4048CB1F80CC0A9
:103818004F880E88164D24F480542404240C048404
:10382800028C8488838B22F40052120423F4E6432A
:10383800120C1B0442EA0C321B0C42EA073243EA20
:103848000623A84292B2A4B29BB20AD005F58065BD
:10385800A84206D0896884808383F0BC016402840E
:1038680070470D8A24F4804444EA8514A4B2F1E731
:1038780000000140002303804380838083608381AC
:10388800C381038243827047038C10B401249BB226
:103898008C4023EA040421F00803048418307BB127
:1038A8000439C1F34E0148F6FF730C5823400B50FE
:1038B80012020B585DF8044B92B21A430A50704733
:1038C80049084FF68F7344582340435043585DF8D6
:1038D800044B1A43425070474163704781637047F5
:1038E800C163704701647047038B23F070031B04A6
:1038F8001B0C194301837047038B23F4E0431B041B
:103908001B0C43EA01218BB203837047838B23F09E
:1039180070031B041B0C194381837047838B23F4AA
:10392800E0431B041B0C43EA01218BB283837047DD
:10393800038B23F008031B041B0C194301837047F6
:10394800038B23F400631B041B0C43EA01218BB295
:1039580003837047838B23F008031B041B0C194354
:1039680081837047838B23F400631B041B0C43EA99
:1039780001218BB283837047038B23F004031B045C
:103988001B0C194301837047038B23F480631B04CA
:103998001B0C43EA01218BB203837047838B23F00E
:1039A80004031B041B0C194381837047838B23F486
:1039B80080631B041B0C43EA01218BB2838370478D
:1039C800038B23F080031B041B0C194301837047EE
:1039D800038BC3F30E0343EA01218BB203837047C1
:1039E800838B23F080031B041B0C194381837047CE
:1039F800838BC3F30E0343EA01218BB283837047A1
:103A0800038C23F002031B041B0C19430184704729
:103A1800038C23F008031B041B0C19430184704713
:103A2800038C23F020031B041B0C43EA01118BB207
:103A380003847047038C23F080031B041B0C43EAA8
:103A480001118BB203847047038C23F400731B04A9
:103A58001B0C43EA01218BB203847047038C23F4C7
:103A680000631B041B0C43EA01218BB203847047DB
:103A7800038C23F400531B041B0C43EA01318BB263
:103A880003847047038C10B401248C409BB223EA52
:103A980004030384038C5DF8044B8A4013439BB2F0
:103AA80003847047038C10B404248C409BB223EA2F
:103AB80004030384038C5DF8044B8A4013439BB2D0
:103AC800038470470B88F0B4002B32D0042B58D0F5
:103AD800082B038C00F083804E888F880D89CC8852
:103AE80023F480510904090C0184828B038C22F48D
:103AF800407223F4005312055B04120D5B0C42EA7A
:103B0800072243EA063342EA05329BB243F4805364
:103B180092B282830384838B23F440631B041B0CBF
:103B28008383838B9BB243EA04239BB28383F0BCD9
:103B38007047028C8D880E894C88C98822F0010252
:103B48001204120C0284028B038C92B222F0F3024C
:103B580023F00A0342EA06121B0444F0010492B25D
:103B68001B0C23432A4302830384038B23F00C0397
:103B78001B041B0C0383038B9BB20B430383F0BC16
:103B88007047028C4E888C880F89C98822F01002F1
:103B98001204120C0284038B058C23F440731B055A
:103BA8001B0DADB243EA073225F0A00545EA06131E
:103BB80092B242EA04229BB243F0100392B202830B
:103BC8000384038B23F440631B041B0C0383038BC4
:103BD8009BB243EA01239BB20383F0BC704723F4F2
:103BE80080731B041B0C4D888C880E89CA8803843B
:103BF800818B038C89B29BB221F0F30123F42063FB
:103C080041EA061143EA052389B29BB243F4807363
:103C1800214381830384838B23F00C031B041B0C37
:103C28008383838B9BB21343838380E70023012222
:103C3800828003804380C38003817047F0B44D883D
:103C48008C880B88B1F808C0028CC988002D14BF75
:103C580000260226012C14BF01270227002B4BD077
:103C680022F010021204120C0284038B028C23F43B
:103C780040731B051B0D92B243EA0C3322F0A002DD
:103C88009BB242EA051543EA0424ADB2A4B245F05A
:103C9800100504830584038B23F440631B041B0C69
:103CA8000383038B9BB243EA01239BB20383038CF8
:103CB80023F001031B041B0C0384028B038C92B2B8
:103CC80022F0F3029BB242EA0C1C23F00A0343F0F1
:103CD80001031FFA8CFC1E434CEA0707078306847E
:103CE800038B23F00C031B041B0C0383038B9BB275
:103CF80019430183F0BC704722F001021204120C30
:103D08000284038B028C9BB223F0F30322F00A0295
:103D180043EA0C13120445F001059BB2120C1C4334
:103D28002A4304830284028B22F00C021204120C30
:103D38000283038B9BB20B430383028C22F0100295
:103D48001204120C0284038B028C23F440731B05AB
:103D58001B0D92B243EA0C3322F0A0029BB242F050
:103D6800100243EA072742EA061607830684038BF4
:103D780023F440631B041B0C0383038B9BB243EAAD
:103D8800012189B20183F0BC704700BF406B7047C6
:103D9800806B7047C06B7047006C7047038B23F0D3
:103DA8000C031B041B0C0383038B9BB21943018375
:103DB800704700BF038B23F440631B041B0C038371
:103DC800038B9BB243EA01218BB20383704700BF88
:103DD800838B23F00C031B041B0C8383838B9BB204
:103DE80019438183704700BF838B23F440631B040E
:103DF8001B0C8383838B9BB243EA01218BB28383A1
:103E0800704700BFB1F802C00B888A89F0B48F8868
:103E1800CE880D894C894CEA03033B4333432B433B
:103E2800234313439BB2A0F84430F0BC704700BF53
:103E38000023038043808380C3800381438183817F
:103E4800704700BFB0F8443021B9C3F30E03A0F89F
:103E5800443070476FEA43436FEA53439BB2A0F87C
:103E680044307047838829B923F004031B041B0CD2
:103E7800838070479BB243F004038380704700BF80
:103E8800838829B923F001031B041B0C8380704726
:103E98009BB243F001038380704700BF83899BB2C4
:103EA8001AB923EA0101818170471943818170475A
:103EB80081827047038A19420CBF00200120704795
:103EC800C94389B201827047038A828911EA0300D3
:103ED80092B203D011420CBF00200120704700BFEE
:103EE800C94389B2018270470A43A0F84820704745
:103EF80083899BB21AB923EA01018181704719436A
:103F080081817047838829B923F008031B041B0C9F
:103F1800838070479BB243F008038380704700BFDB
:103F2800038923F007031B041B0C0381704700BFA0
:103F3800038923F070031B041B0C194301810389B7
:103F48009BB243F007030381704700BF602930B478
:103F5800048C24D024F001042404240C0484058B4C
:103F6800048CADB225F0F305A4B245F0010524F0A8
:103F78000A0445EA031344F001049BB22243038375
:103F88000284038923F070031B041B0C0B43038179
:103F980003899BB243F00703038130BC704724F0C8
:103FA80010042404240C0484048B058C24F4407429
:103FB8002405ADB2240D25F0A00544F4807445F025
:103FC800100544EA033345EA02129BB292B2038316
:103FD8000284D6E710B4048942EA0323E4B22343F7
:103FE8009BB21943018103895DF8044B23F07703E1
:103FF8001B041B0C43F077030381704710B404893A
:1040080042EA0323E4B223439BB2194301810389A3
:104018005DF8044B9BB243F480430381704700BFB3
:10402800038923F070031B041B0C1943018170479B
:10403800838823F070031B041B0C838083889BB246
:1040480019438180704700BF038923F007031B04CD
:104058001B0C038103899BB219430181704700BF80
:10406800038923F080031B041B0C038103899BB283
:1040780019430181704700BF10B40489E4B2214399
:104088000A4342EA03239CB204815DF8044B70475B
:1040980070B40589048B068C24F4407424F003045E
:1040A800B6B226F0220625F00705240432432D0473
:1040B800240C2D0C44F4807442EA0313294344F081
:1040C80001049EB201810483068470BC704700BF5E
:1040D800838829B923F080031B041B0C8380704755
:1040E8009BB243F080038380704700BFA0F8501054
:1040F800704700BF40F0BF60024B40F40030D8600A
:10410800704700BF00ED00E0C378F0B463B90378EE
:10411800194A5909203103F01F03012000FA03F35B
:1041280042F82130F0BC7047144B4778DA6885783C
:1041380003781149D243C2F30222C2F104040F26C4
:10414800E4B207FA04F446FA02F2E4B22A4022433F
:1041580003F1604303F561431201D2B283F80023EF
:104168000378012003F01F025B0900FA02F241F80C
:104178002320F0BC704700BF00E100E000ED00E044
:1041880021F0604121F07F01014B0843986070479E
:1041980000ED00E0044B1A6919B922EA0000186121
:1041A800704710431861704700ED00E0044B1A682F
:1041B80004280CBF42F0040222F004021A6070477F
:1041C80010E000E030B50F4D044683B055F82000EC
:1041D800012105EB4405FEF7A7FD0B4A2B8A52F88F
:1041E8002400009302220123002469468DF804303C
:1041F8008DF807308DF806408DF80520FEF772F926
:1042080003B030BD9871000890000020044A054BA7
:1042180002EB400253F82030128A1A83704700BF1D
:104228009871000890000020044A054B02EB4002F8
:1042380053F82030128A5A83704700BF98710008DB
:1042480090000020054A064B53F8203002EB40004E
:104258005A69018A4A405A61704700BF987100083C
:104268009000002030B50446012087B00D46014675
:10427800FEF75AFD4FF480400121FEF785FD06AB9D
:104288001849012201EB840443F8102D20691946CE
:1042980000248DF80C408DF80F40FEF723F9012D0E
:1042A80001D007B030BD21462046FFF719F8082392
:1042B80004A88DF8153004958DF814408DF8165023
:1042C800FDF704FE0F23062201A88DF807508DF88C
:1042D80004208DF805308DF80630FFF715FF07B07C
:1042E80030BD00BF9000002008B5044B03EB8000F0
:1042F80001210069FEF770F908BD00BF9000002099
:1043080008B5074810210022FEF77EF944F6FF732E
:10431800013BFDD1024810210122FEF775F908BDC5
:10432800000C024070B58D4C4FF4961306460D46AE
:10433800236005E023685A1E2260002B00F00181EB
:1043480087484FF40031FEF775FB0028F2D1844806
:104358000121FEF73FFA4FF48053236005E02368FC
:104368005A1E2260002B00F0EC807D487D49FEF744
:104378004DFB0028F3D07A4894210022FEF746FA34
:104388004FF48053236005E023685A1E2260002BF7
:1043980000F0D78072487449FEF738FB0028F3D044
:1043A8006F483146FEF7CAFA4FF48053236005E0A0
:1043B80023685A1E2260002B00F0C38068486B49AE
:1043C800FEF724FB0028F3D065482946FEF7B6FA25
:1043D8004FF49613236005E023685A1E2260002BD1
:1043E80000F0B9805E486249FEF724FB0028F3D04C
:1043F8005B480121FEF7FCF94FF49613236005E0B2
:1044080023685A1E2260002B00F09F8054484FF406
:104418000031FEF70FFB0028F2D151480121FEF7C9
:10442800D9F94FF48053236005E023685A1E2260AF
:10443800002B00F08A804A484A49FEF7E7FA00282C
:10444800F3D0474894210022FEF7E0F94FF4805357
:10445800236004E023685A1E2260002B75D0404870
:104468004149FEF7D3FA0028F4D031463C48FEF71C
:1044780065FA4FF48053236004E023685A1E2260D3
:10448800002B62D036483A49FEF7D4FA0028F4D017
:1044980033480121FEF79EF94FF48053236004E06E
:1044A80023685A1E2260002B4FD02D482D49FEF755
:1044B800ADFA0028F4D02A4894210122FEF7A6F983
:1044C8004FF48053236004E023685A1E2260002BB7
:1044D8003BD0234E27493046FEF7ACFA0028F3D0EC
:1044E80030460021FEF79CF930460121338BFEF758
:1044F8007FF94FF48053236003E023685A1E22603B
:104508001BB317481C49FEF795FA0028F5D0144844
:10451800FEF716FA4FF4805306462360104A03E06C
:104528002368591E216083B113889B05F8D40C4871
:104538000121FEF775F90A481049FEF797FA304647
:1045480005E0BDE87040FCF71DBDFCF71BFD281A0F
:1045580018BF012070BDFCF715FD43E7A40000203B
:10456800005400400100030082000700800007009B
:1045780004000010020000104000001000040010A9
:10458800193038B5C4B221462020FFF7CBFE2146AA
:1045980005462120FFF7C6FE284438BD0420FF2128
:1045A800FFF7C0BE70B5234C6068A168FDF7E4FB57
:1045B80000282FD0E568002D2DD060681D4DFDF72F
:1045C800D3FB0028F9D11C4C6868A968FDF7F2FBF9
:1045D8001A4B2168EA689960686819464FF6FF76B1
:1045E800B24294BF1A611E61FDF730FB6868012171
:1045F800FDF776FBEB6822686868B34238BF1E4651
:1046080002EB46029E1B2260EE600121BDE870406D
:10461800FDF766BB70BD60682946FDF761FB606801
:10462800A168FDF7C7FB044B29461868BDE8704030
:10463800FCF768BCA4000020840C0020C40C0020F7
:104648001E4B2DE9F00318611A69012A21D00228AE
:1046580002D0BDE8F0037047194EDFF88880194F83
:10466800194D1A4C1A481B491B4A5E604FF0000945
:104678004FF4001C0B26C8F800909F61DE619D6016
:104688001C62C3F814C058629962DA62BDE8F0038C
:104698007047124A5A60DFF84C80114F4FF00009FA
:1046A8004FF4001C2F264FF020554FF010544FF0B8
:1046B80001504FF008514FF00452DCE7A4000020ED
:1046C800106002400C740040200000101000001020
:1046D800010080100800001004008010B86002403B
:1046E8000C3C0040100600202DE9F0412F4E304DC3
:1046F800F369DFF8C4802F4F82B0002468468DF834
:1047080000308DF801408DF802408DF80340FFF726
:10471800FBFC21467068FDF7E3FA7068FDF7FEF9C7
:10472800FFF7EEFD01210220FFF7FCFD6946284650
:104738004FF4A05300938DF804408DF805408DF890
:1047480006408DF80740FDF7CDFE10236946404628
:104758000093FDF7C7FE404622460421FDF760FF9F
:10476800284622460A21FDF75BFF224628460C21EF
:10477800FDF756FF8023694628460093FDF7B2FEF1
:10478800062228460721FDF74BFF21463846FEF74B
:10479800B1FC3846FEF7BAFB21464FF40040FEF75D
:1047A800E7FA204602B0BDE8F08100BFA40000206F
:1047B80000080240003C00400000024070B528B3E9
:1047C800204D04202979FFF7ADFD297904460420FE
:1047D800FFF7A8FD9E2105460220FFF7A3FD284408
:1047E800041901D0012070BD174D0221284601226D
:1047F800FEF71EFD154B01215868FDF771FAAE8BC7
:1048080006F48066B6B2B6B1204670BDFFF7C6FEA4
:10481800012104460220FFF785FD2418E2D1224633
:1048280009480221FEF704FD084B21465868FDF7A8
:1048380057FA204670BD28460121FEF75BFC30463A
:1048480070BD00BF10060020003C0040A4000020FE
:1048580070B50446FFF7A2FE022C26D002209F2145
:10486800FFF760FD40F6FF720546013AFDD1124898
:104878001021FDF7C9FE0DB1012070BD0F4C29466E
:104888006068FDF72DFA266AA168626AA36A606803
:10489800314311431943FDF78DFA09482946FEF7BC
:1048A80029FC236BE360284670BD20469F21FFF753
:1048B80039FD0546DFE700BF000C0240A4000020D8
:1048C800003C004064280AD8064BC0EB002083FB5C
:1048D8000023C017C0EB6310C0B2FFF751BE6420BD
:1048E800FFF74EBE1F85EB51012804D0034B04206F
:1048F8001979FFF717BDFFF751BE00BF100600205A
:10490800FFF750BEFFF74EBE08B50C480221FEF770
:10491800A9FC58B10A4B1B69022B08D0FCF7F6FA20
:10492800BDE8084001460548FEF762BC08BDFCF733
:10493800EDFA01460420FDF769F8EFE7003C004076
:10494800A400002070B5124C124B25690646012DB3
:104958000A4660689E6011D019461A61FDF776F91B
:1049680060680121FDF7BCF90B48838B5B0500D516
:1049780070BD0121BDE87040FEF7BCBB4A0819466E
:104988001A61FDF763F960682946FDF7A9F9EBE7B5
:10499800A4000020C40C0020003C004070B50D4D60
:1049A800B1F5802F0C46296334BF89084FF6FF7193
:1049B8000646FFF7C7FF2B6B074A4FF6FF718B427E
:1049C80028BF0B46C3EB540406EB4306EC601660A5
:1049D800002070BDA4000020840C002010B51148F0
:1049E80086B00121FEF7A0F94FF000500121FEF733
:1049F800BFF900241022032369460B4800928DF862
:104A080004308DF80740FDF76DFD204602A9029499
:104A180003940594FCF796FF20460121FCF7B0FFAC
:104A280006B010BD01002000000002402DE9F04F43
:104A3800642989B0904600F20D81B94BC1EB012180
:104A480083FB0129C917C1EB69195FFA89F94FF08E
:104A5800100A08200121FEF767F902250024012722
:104A68000DEB0A01AF48CDF810A08DF814708DF841
:104A780015508DF816408DF81740FDF733FD39466F
:104A88000720FEF751F94FF410730DEB0A01A64801
:104A980004938DF814508DF815508DF816708DF814
:104AA8001740FDF71FFDA048A04E06210422FDF780
:104AB800B7FD04229C480921FDF7B2FD4FF4A0532D
:104AC8000DEB0A019A4804938DF814508DF815508F
:104AD8008DF816408DF81740FDF704FD9548042120
:104AE8000622FDF79DFD92480A210622FDF798FD52
:104AF8003369AB4200F0D2808E48CDF810A00DEBA0
:104B08000A01FDF7EFFC8A480C210622FDF788FD13
:104B18008023022500248648049304A98DF81450A4
:104B28008DF815508DF816408DF81740FDF7DAFC12
:104B380006227F48804F0721FDF772FDFFF7E0FB53
:104B480001214FF40010FEF713F97C48FDF77CFDB6
:104B58004BF6FF7A4FF0330C4FF4806E4FF48042DF
:104B6800774B7648ADF818C00121ADF81AE0ADF8DA
:104B78001C200493ADF81440ADF816A0FDF71CFEF8
:104B88006E4804A9FDF796FD28460121FFF7CAFBE8
:104B9800AF2105460420FFF7C5FBAF23054481215B
:104BA80005203B71FFF7BEFB042105440620FFF7F3
:104BB800B9FB05444846FFF7E3FC3369022B00F0D4
:104BC8008E809E210220FFF7ADFB00212C180A20C1
:104BD800FFF7A8FB3369022B044404D00E200421FC
:104BE800FFF7A0FB044400212720FFF79BFB0F21C0
:104BF80025181F20FFF796FB0A2105441A20FFF706
:104C080091FB0A2105441B20FFF78CFB0121054479
:104C18004FF40040FEF7ACF84A48FEF777F9002455
:104C28004FF400734748ADF800306946ADF80630D8
:104C3800CDF80880ADF80240ADF80440ADF80C405E
:104C4800FEF7C4F93369022B38D035B1012009B019
:104C5800BDE8F08F4FF06409F9E63469DFF8CC80DD
:104C6800012C71D03269012A54D0FFF7B7FE3548BC
:104C780071210122FEF7E6FA00233321012204A85C
:104C88008DF810108DF811308DF812308DF8132032
:104C9800FFF73AFA002009B0BDE8F08F38463946E8
:104CA800FEF742F803232348CDF810A004A98DF895
:104CB80017408DF81430FDF715FC29E74FF0005028
:104CC8000121FEF755F8204604A904940594079499
:104CD800FCF738FE20460121FCF752FEB5E701211A
:104CE8000820FFF71FFB012181460920FFF71AFB67
:104CF800C02181440E20FFF715FB4D442146054491
:104D08001420FFF70FFB214605441520FFF70AFB87
:104D1800054456E70B480221FEF78AFABAE700BFB6
:104D28001F85EB51000C024000040240A400002043
:104D38000008024000000240100600200054004015
:104D4800A0860100003C0040D8F814002146FDF779
:104D5800EBFF2946D8F80400FCF7C2FFD8F8040096
:104D6800FCF7DCFE1D4B39681960D8F8181059603B
:104D78004FF4006C1946D8F804009D604FF40052B7
:104D88004FF0400B4FF6FE7A4FF480694FF400372E
:104D98005D615D62DD621D635D639D63C3F80CB098
:104DA800C3F810A0C3F81890C3F81CC01A629F6219
:104DB800FCF74CFFD8F8040010212246FDF714F840
:104DC800D8F81C308DF8103004A88DF811508DF8E3
:104DD80012508DF81340FFF797F943E7C40C0020F1
:104DE80038B5154C4FF480530546236003E023681B
:104DF8005A1E2260E3B111480221FEF733FA002857
:104E0800F5D029460D48FEF7F3F94FF48053236097
:104E180003E023685A1E226053B108480121FEF7B7
:104E280021FA0028F5D00548FEF7DEF9C0B238BDF2
:104E3800FBF7E4FBC0B238BDD800002000300140C9
:104E4800012A70B504460E46154611484FF0080170
:104E580015D9FDF7D7FB46F04000FFF7C1FF013D2C
:104E6800ADB20135254414F8010BFFF7B9FFAC4288
:104E7800F9D107480821BDE87040FDF7C1BBFDF72F
:104E8800C1FB3046FFF7ACFF002DE8D1F1E700BFCA
:104E9800001002402DE9F04F89B00024804601211E
:104EA8004FF480508DF80340FDF76EFF0120014656
:104EB800FDF73AFF10200121FDF736FF10200121F0
:104EC800FDF732FF494EDFF828A1DFF828911020BE
:104ED8000121FDF729FF052130460A46FDF7A0FB11
:104EE80030460621052208ADFDF79AFB052230461B
:104EF8000721FDF795FB202345F81C3D0227304686
:104F080029468DF80A408DF808708DF80B708DF8D9
:104F18000970FDF7E7FA2946304680230193FDF72B
:104F2800E1FA4023294630460193FDF7DBFA504663
:104F3800FDF7ECFF4FF0080B4FF4007E4FF4827240
:104F4800504603A90726ADF816E0ADF80E20ADF8D7
:104F58000C40ADF81040ADF81240ADF81440ADF873
:104F68001A40ADF81C60ADF818B0FEF705F85046C9
:104F78000121FEF7B1F80126294648468DF80A4076
:104F8800CDF804B08DF809708DF80860FDF7AAFA1D
:104F980048465946FDF734FB294648468DF80840EF
:104FA8008DF80A408DF80B4001968DF80970FDF7D1
:104FB80099FA294648460197FDF794FA98F800406F
:104FC80098F8013098F8030098F8041098F802202F
:104FD800234303430B4308A8134300F81D3D202136
:104FE8003246FFF72DFF09B0BDE8F08F0000024000
:104FF8000030014000100240012A70B504460E46F8
:10500800154612484FF0080116D9FDF7FBFA46F08D
:10501800C000FFF7E5FE013DADB201352544002093
:10502800FFF7DEFE04F8010BAC42F8D1074808216F
:10503800BDE87040FDF7E4BAFDF7E4FA46F08000F9
:10504800FFF7CEFE002DE6D1F0E700BF00100240CA
:1050580030B583B002AC002304F8013D0546212198
:1050680020460122FFF7C8FF68782B78A9789DF8B9
:10507800072003430B4322F02F021343204621212C
:1050880001228DF80730FFF7DBFE03B030BD00BF0B
:1050980030B583B002AC002304F8013D0546382141
:1050A80020460122FFF7A8FF69782B78AA780B43DE
:1050B80013432046382101228DF80730FFF7C0FE40
:1050C80003B030BD10B582B0044620210DF10700B1
:1050D8000122FFF791FF9DF8073023F040031C439E
:1050E8000DF10700202101228DF80740FFF7A8FEE7
:1050F80002B010BD10B582B0044620210DF10700A2
:105108000122FFF779FF9DF8073003F07F031C4366
:105118000DF10700202101228DF80740FFF790FECE
:1051280002B010BD10B582B0044620210DF1070071
:105138000122FFF761FF9DF8073023F020031C438D
:105148000DF10700202101228DF80740FFF778FEB6
:1051580002B010BD00B583B00DF107002121012276
:10516800FFF74AFF9DF807300DF1070043F04003B1
:10517800212101228DF80730FFF762FE03B05DF8A8
:1051880004FB00BF10B584B02021012204460DF1B4
:105198000700FFF731FF062202A82921FFF72CFF9D
:1051A8009DF8073003F0200303F0FF029BB182B1A2
:1051B8009DF908109DF90A209DF90C3001EBC101F9
:1051C80002EBC20203EBC303C900D200DB0084E890
:1051D8000E0004B010BD9DF908109DF90A209DF934
:1051E8000C3001EBC10102EBC20203EBC30349001F
:1051F80052005B0084E80E0004B010BD10B5D0F872
:10520800E43504461B699847032384F812310020CB
:1052180010BD00BF08B50422D0F8E43580F812218B
:10522800DB689847002008BD08B5D0F8E035DB6991
:1052380003B19847002008BD08B5D0F8E0351B6ACF
:105248009847002008BD00BF08B5D0F8E0355B6A74
:105258009847002008BD00BF002110B50B46044642
:10526800402201F0F5F9802120464022002301F078
:10527800EFF90122D4F8E43584F81221A0785B68AC
:105288009847002010BD00BF10B582B0694604469B
:1052980000F0D6F99DF8001001F01F03012B18D07B
:1052A80010D3022B07D0204601F0800101F04AFA02
:1052B800002002B010BD2046694600F08FFB002098
:1052C80002B010BD2046694600F0F6F9002002B091
:1052D80010BD2046694600F067FB002002B010BDF3
:1052E80070B5044629B990F81131022B0CD0002072
:1052F80070BDD0F8E0355B69002BF8D090F812212A
:10530800032AF4D19847F2E7D0F83421D0F82031B5
:105318009A4210D9C1780129D0F82411C3EB0202AE
:1053280008BFC918C0F8342108BFC0F8241192B2C8
:1053380000F03EF9DBE7D0F83851B5FBF3F603FB94
:1053480016565EB9AB4209D8D0F83C319D4205D219
:10535800324600F02DF9C4F83C61C8E7D4F8E035CE
:10536800DB681BB194F81221032A03D0204600F011
:105378004FF9BCE720469847F8E700BF10B5044648
:1053880029B990F81131032B0CD0002010BDD0F8AA
:10539800E0359B69002BF8D090F81221032AF4D14C
:1053A8009847F2E7D0F88C23D0F878339A4212D98C
:1053B800C1780129D0F87C13C3EB020204BFC918D5
:1053C800C0F87C13C0F88C239A4228BF1A4692B2C0
:1053D80000F006F9D9E7D0F8E0351B691BB190F861
:1053E8001221032A03D0204600F002F9CDE798479E
:1053F800F9E700BF2DE9F0410446164698460D46E8
:10540800069FFBF789FF20462946C4F8E085C4F8C3
:10541800E475C4F8E86501F0CDF8D4F8E4351B6804
:1054280098472046BDE8F041FBF7D0BF0020704701
:10543800D0F8E03510B504461B689847D4F8E43531
:105448009B689847002010BD08B5D0F8E0355B6828
:105458009847002008BD00BF22230B8000487047F2
:105468000C01002008B5812101F0A8F9002008BD31
:1054780010B50C7814F0600403460FD0202C02D02D
:105488000024204610BD4A78023A092A36D8DFE8B7
:1054980002F02E27353535353535211C4A780A2A4C
:1054A80031D00B2A0DD0062AEBD14A88120A222ABB
:1054B80034D0212A2CD021462246184600F068F81C
:1054C800DFE7194B8A789A60DBE7174B8A781A600E
:1054D8000024D6E74A88144B120A5A600024D0E701
:1054E80018461149012200F053F80024C9E718466C
:1054F8000E49012200F04CF80024C2E7184600F0DB
:10550800C1F80224BDE70A49012200F041F8B8E7D2
:10551800CA880849092A28BF0922CEE7CA88064945
:105528004A2A28BF4A22C8E7180600201C0600207D
:10553800200600201E0100203001002010B5812126
:10554800044601F0ABF82046012101F0A7F800203D
:1055580010BD00BF10B5812104460422032301F0C9
:1055680077F8204601210422032301F071F8002076
:1055780010BD00BF10B590F81241032C134601D09E
:10558800002010BD0A46812101F0C0F8002010BD9E
:1055980038B5134602250A46C0F83831C0F8343108
:1055A80080F81151002101F0B1F8002038BD00BF8A
:1055B80008B513460A46002101F0A8F8002008BDE6
:1055C80038B5134603250A46C0F89033C0F88C3323
:1055D80080F81151002101F07DF8002038BD00BF8E
:1055E80008B513460A46002101F074F8002008BDEA
:1055F80010B50021042304460A4680F811310B46F1
:1056080001F084F8204600F0E5FE002010BD00BF40
:1056180010B50021052304460A4680F811310B46CF
:1056280001F058F8204600F0D5FE002010BD00BF5C
:1056380001EB810100EBC100B0F88803704700BF9F
:1056480090F8C8350B7090F8C9354B7090F8CB2599
:1056580090F8CA3503EB02234B8090F8CD2590F8DB
:10566800CC3503EB02238B8090F8CF2590F8CE350C
:1056780003EB02239BB20122CB80C0F83C3180F8B7
:105688001121704710B591F90030002B044609DB51
:10569800CB883BB1002101F055F82046BDE8104009
:1056A80000F098BE2046802101F04CF82046BDE865
:1056B800104000F08FBE00BF70B54B7882B00C462A
:1056C8000546092B0CD8DFE803F032460B5A0B05C8
:1056D800710B8712A3881BB9E388002B00F08E801A
:1056E80028462146FFF7CEFF002002B070BDA17802
:1056F800AA4E01293170F3D890F81231022B00F02C
:105708009880032BECD1002900F03D8190F810110E
:10571800012900F03081FFF797FE317885F81011E4
:105728002846FFF785FE2846FFF762FFDCE790F87A
:1057380012310122023B93424FF00301D0D8D0F836
:105748001431002B57D1954B9A6028469449012271
:10575800FFF71EFFC8E790F81231023B012BBFD8B4
:105768006388012BC0D1D0F8E03500229B68C0F8CF
:105778001421214698472846FFF73AFFB4E7638883
:10578800012B00F0F180022BAED1A38813F0FF0F9C
:10579800AAD101691B0A4A68013B1046042B00F292
:1057A8009480DFE803F0979C8EA6A1006288130A14
:1057B800013B062B94D801A151F823F0A958000801
:1057C8006B58000859580008E9560008E9560008BF
:1057D800E9560008E9560008E288012A80D190F8C5
:1057E8001231022B21D0032B7FF47AAF00F5887198
:1057F800FFF7CEFE78E7694B9960A6E790F812317B
:10580800A678032B06F07F063FF46AAF80F8136191
:10581800314600F0E1FF2846FFF7EAFE002E00F0CF
:10582800AE80022385F812315EE75E49FFF7B0FECD
:105838005AE7002900F09F800121032380F8101106
:1058480080F81231FFF7F4FD2846FFF7D1FE4BE749
:10585800D2B2052A3FF644AFDFE802F07D746B62EE
:105868005950D0F8E03580789B6A0DF106019847C9
:10587800022343700146C5F8EC05BDF80630002B3D
:105888003FF432AFE288002A3FF42EAF934228BF9C
:1058980013461A462846ADF80630FFF779FE23E787
:1058A800D0F8E83580781B680DF106019847E28842
:1058B800402A014603D095F81231012BDDD1082387
:1058C800E1E7032363F3061002464A602846FFF720
:1058D8008FFE09E7012363F306100246F5E702236A
:1058E80063F306100246F0E7052363F30610024649
:1058F800EBE7042363F306100246E6E7D0F8E83541
:1059080080789B690DF1060198470146B5E7D0F804
:10591800E83580785B690DF1060198470146ACE7E8
:10592800D0F8E83580781B690DF1060198470146E3
:10593800A3E7D0F8E8358078DB680DF106019847D1
:1059480001469AE7D0F8E83580789B680DF10601A2
:105958009847014691E7D0F8E83580785B680DF103
:1059680006019847014688E7D0F8E025C0F81431C9
:105978002146936898472846FFF73AFEB4E6012384
:1059880085F81231B0E6022380F8101180F8123140
:10599800FFF75AFD2846FFF72BFEA5E62406002050
:1059A8002C0600202806002038B590F81231032B69
:1059B80004460D4602D10B79012B03D9FFF762FE8D
:1059C800002038BDD0F8E0359B689847EB88002B5D
:1059D800F6D12046FFF70CFEF2E700BF70B54B7812
:1059E8008A88012B0C460546D6B224D019D3032B3E
:1059F80015D190F81231022B17D0032B3ED14B88CA
:105A080023B9730602D0314600F09CFED5F8E03584
:105A180021469B68284698472846FFF7E9FD00205D
:105A280070BD90F81231022B14D17206F7D03146AE
:105A380000F088FEF3E790F81231022BF5D0032B23
:105A48001CD14B88002BEAD17106E5D0314600F015
:105A580097FEDBE7032B11D1130613D406EB86065A
:105A680000EBC60696F87233B3B90D4B0022DA6024
:105A780028460C490222FFF78BFDD0E7FFF702FE0C
:105A8800002070BD06F07F0606EB860600EBC60612
:105A980096F81A31002BE8D0014B0122DA60E7E7CB
:105AA800240600203006002030B4F0B10378F3B1AA
:105AB8000446002314F8015F0133DBB2002DF9D14D
:105AC8005B000233DCB2032513800C704D70027842
